{
  "_format": "hh-sol-artifact-1",
  "contractName": "AssetFactory",
  "sourceName": "contracts/AssetFactory.sol",
  "abi": [
    {
      "inputs": [
        {
          "internalType": "address",
          "name": "_assetContract",
          "type": "address"
        }
      ],
      "stateMutability": "nonpayable",
      "type": "constructor"
    },
    {
      "inputs": [],
      "name": "ERC1167FailedCreateClone",
      "type": "error"
    },
    {
      "inputs": [
        {
          "internalType": "address",
          "name": "owner",
          "type": "address"
        }
      ],
      "name": "OwnableInvalidOwner",
      "type": "error"
    },
    {
      "inputs": [
        {
          "internalType": "address",
          "name": "account",
          "type": "address"
        }
      ],
      "name": "OwnableUnauthorizedAccount",
      "type": "error"
    },
    {
      "anonymous": false,
      "inputs": [
        {
          "indexed": true,
          "internalType": "address",
          "name": "_assetContract",
          "type": "address"
        }
      ],
      "name": "AssetContractUpdated",
      "type": "event"
    },
    {
      "anonymous": false,
      "inputs": [
        {
          "indexed": false,
          "internalType": "address",
          "name": "istanceAddress",
          "type": "address"
        },
        {
          "indexed": false,
          "internalType": "address",
          "name": "assetContract",
          "type": "address"
        },
        {
          "indexed": false,
          "internalType": "address",
          "name": "owner",
          "type": "address"
        },
        {
          "indexed": false,
          "internalType": "string",
          "name": "name",
          "type": "string"
        },
        {
          "indexed": false,
          "internalType": "string",
          "name": "symbol",
          "type": "string"
        },
        {
          "indexed": false,
          "internalType": "string",
          "name": "proofId",
          "type": "string"
        }
      ],
      "name": "NftMinted",
      "type": "event"
    },
    {
      "anonymous": false,
      "inputs": [
        {
          "indexed": true,
          "internalType": "address",
          "name": "previousOwner",
          "type": "address"
        },
        {
          "indexed": true,
          "internalType": "address",
          "name": "newOwner",
          "type": "address"
        }
      ],
      "name": "OwnershipTransferred",
      "type": "event"
    },
    {
      "stateMutability": "payable",
      "type": "fallback"
    },
    {
      "inputs": [
        {
          "internalType": "address",
          "name": "",
          "type": "address"
        }
      ],
      "name": "assetToOwner",
      "outputs": [
        {
          "internalType": "address",
          "name": "",
          "type": "address"
        }
      ],
      "stateMutability": "view",
      "type": "function"
    },
    {
      "inputs": [
        {
          "internalType": "uint256",
          "name": "",
          "type": "uint256"
        }
      ],
      "name": "assets",
      "outputs": [
        {
          "internalType": "address",
          "name": "",
          "type": "address"
        }
      ],
      "stateMutability": "view",
      "type": "function"
    },
    {
      "inputs": [],
      "name": "getAssetContract",
      "outputs": [
        {
          "internalType": "address",
          "name": "",
          "type": "address"
        }
      ],
      "stateMutability": "view",
      "type": "function"
    },
    {
      "inputs": [],
      "name": "getAssets",
      "outputs": [
        {
          "internalType": "address[]",
          "name": "",
          "type": "address[]"
        }
      ],
      "stateMutability": "view",
      "type": "function"
    },
    {
      "inputs": [],
      "name": "getCount",
      "outputs": [
        {
          "internalType": "uint256",
          "name": "",
          "type": "uint256"
        }
      ],
      "stateMutability": "view",
      "type": "function"
    },
    {
      "inputs": [
        {
          "internalType": "address",
          "name": "_owner",
          "type": "address"
        }
      ],
      "name": "getCreatorMintedNfts",
      "outputs": [
        {
          "internalType": "address[]",
          "name": "",
          "type": "address[]"
        }
      ],
      "stateMutability": "view",
      "type": "function"
    },
    {
      "inputs": [],
      "name": "owner",
      "outputs": [
        {
          "internalType": "address",
          "name": "",
          "type": "address"
        }
      ],
      "stateMutability": "view",
      "type": "function"
    },
    {
      "inputs": [],
      "name": "renounceOwnership",
      "outputs": [],
      "stateMutability": "nonpayable",
      "type": "function"
    },
    {
      "inputs": [
        {
          "components": [
            {
              "internalType": "string",
              "name": "name",
              "type": "string"
            },
            {
              "internalType": "string",
              "name": "symbol",
              "type": "string"
            },
            {
              "internalType": "string",
              "name": "proofId",
              "type": "string"
            },
            {
              "internalType": "string",
              "name": "did",
              "type": "string"
            },
            {
              "internalType": "string",
              "name": "assetId",
              "type": "string"
            },
            {
              "internalType": "string",
              "name": "license",
              "type": "string"
            }
          ],
          "internalType": "struct AssetFactory.AssetData",
          "name": "_assetData",
          "type": "tuple"
        }
      ],
      "name": "tokenize",
      "outputs": [
        {
          "internalType": "address",
          "name": "instanceAddr",
          "type": "address"
        }
      ],
      "stateMutability": "nonpayable",
      "type": "function"
    },
    {
      "inputs": [
        {
          "internalType": "address",
          "name": "newOwner",
          "type": "address"
        }
      ],
      "name": "transferOwnership",
      "outputs": [],
      "stateMutability": "nonpayable",
      "type": "function"
    },
    {
      "stateMutability": "payable",
      "type": "receive"
    }
  ],
  "bytecode": "0x60806040523480156200001157600080fd5b5060405162001d6238038062001d62833981810160405281019062000037919062000460565b33600073ffffffffffffffffffffffffffffffffffffffff168173ffffffffffffffffffffffffffffffffffffffff1603620000ad5760006040517f1e4fbdf7000000000000000000000000000000000000000000000000000000008152600401620000a49190620004a3565b60405180910390fd5b620000be81620000df60201b60201c565b506000600181905550620000d881620001a360201b60201c565b50620005db565b60008060009054906101000a900473ffffffffffffffffffffffffffffffffffffffff169050816000806101000a81548173ffffffffffffffffffffffffffffffffffffffff021916908373ffffffffffffffffffffffffffffffffffffffff1602179055508173ffffffffffffffffffffffffffffffffffffffff168173ffffffffffffffffffffffffffffffffffffffff167f8be0079c531659141344cd1fd0a4f28419497f9722a3daafe3b4186f6b6457e060405160405180910390a35050565b620001b3620002ff60201b60201c565b600073ffffffffffffffffffffffffffffffffffffffff168173ffffffffffffffffffffffffffffffffffffffff160362000225576040517f08c379a00000000000000000000000000000000000000000000000000000000081526004016200021c9062000521565b60405180910390fd5b6200023681620003a160201b60201c565b62000278576040517f08c379a00000000000000000000000000000000000000000000000000000000081526004016200026f90620005b9565b60405180910390fd5b80600260006101000a81548173ffffffffffffffffffffffffffffffffffffffff021916908373ffffffffffffffffffffffffffffffffffffffff1602179055508073ffffffffffffffffffffffffffffffffffffffff167f1f5e6ac605eeae4b41e8d0f514aa262d091ec857ae1a781ae9ca8798594bc91160405160405180910390a250565b6200030f620003c560201b60201c565b73ffffffffffffffffffffffffffffffffffffffff1662000335620003cd60201b60201c565b73ffffffffffffffffffffffffffffffffffffffff16146200039f5762000361620003c560201b60201c565b6040517f118cdaa7000000000000000000000000000000000000000000000000000000008152600401620003969190620004a3565b60405180910390fd5b565b6000620003b3620002ff60201b60201c565b6000823b905060008111915050919050565b600033905090565b60008060009054906101000a900473ffffffffffffffffffffffffffffffffffffffff16905090565b600080fd5b600073ffffffffffffffffffffffffffffffffffffffff82169050919050565b60006200042882620003fb565b9050919050565b6200043a816200041b565b81146200044657600080fd5b50565b6000815190506200045a816200042f565b92915050565b600060208284031215620004795762000478620003f6565b5b6000620004898482850162000449565b91505092915050565b6200049d816200041b565b82525050565b6000602082019050620004ba600083018462000492565b92915050565b600082825260208201905092915050565b7f41646472657373283029204e4f5420616c6c6f77656400000000000000000000600082015250565b600062000509601683620004c0565b91506200051682620004d1565b602082019050919050565b600060208201905081810360008301526200053c81620004fa565b9050919050565b7f50726f76696465642061646472657373206973204e4f5420612076616c69642060008201527f636f6e7472616374206164647265737300000000000000000000000000000000602082015250565b6000620005a1603083620004c0565b9150620005ae8262000543565b604082019050919050565b60006020820190508181036000830152620005d48162000592565b9050919050565b61177780620005eb6000396000f3fe6080604052600436106100945760003560e01c80638da5cb5b116100595780638da5cb5b14610184578063a0de12db146101af578063a87d942c146101ec578063cf35bdd014610217578063f2fde38b146102545761009b565b806246a60e1461009d57806359c191e4146100da578063670c0fdd1461010557806367e4ac2c14610142578063715018a61461016d5761009b565b3661009b57005b005b3480156100a957600080fd5b506100c460048036038101906100bf9190610fbc565b61027d565b6040516100d19190611046565b60405180910390f35b3480156100e657600080fd5b506100ef6106f6565b6040516100fc9190611046565b60405180910390f35b34801561011157600080fd5b5061012c6004803603810190610127919061108d565b610720565b6040516101399190611046565b60405180910390f35b34801561014e57600080fd5b50610157610753565b6040516101649190611178565b60405180910390f35b34801561017957600080fd5b506101826107e1565b005b34801561019057600080fd5b506101996107f5565b6040516101a69190611046565b60405180910390f35b3480156101bb57600080fd5b506101d660048036038101906101d1919061108d565b61081e565b6040516101e39190611178565b60405180910390f35b3480156101f857600080fd5b50610201610a3d565b60405161020e91906111b3565b60405180910390f35b34801561022357600080fd5b5061023e600480360381019061023991906111fa565b610a47565b60405161024b9190611046565b60405180910390f35b34801561026057600080fd5b5061027b6004803603810190610276919061108d565b610a86565b005b60008073ffffffffffffffffffffffffffffffffffffffff163373ffffffffffffffffffffffffffffffffffffffff16036102ed576040517f08c379a00000000000000000000000000000000000000000000000000000000081526004016102e490611284565b60405180910390fd5b610318600260009054906101000a900473ffffffffffffffffffffffffffffffffffffffff16610b0c565b9050600073ffffffffffffffffffffffffffffffffffffffff168173ffffffffffffffffffffffffffffffffffffffff1603610389576040517f08c379a000000000000000000000000000000000000000000000000000000000815260040161038090611316565b60405180910390fd5b6003819080600181540180825580915050600190039060005260206000200160009091909190916101000a81548173ffffffffffffffffffffffffffffffffffffffff021916908373ffffffffffffffffffffffffffffffffffffffff16021790555033600460008373ffffffffffffffffffffffffffffffffffffffff1673ffffffffffffffffffffffffffffffffffffffff16815260200190815260200160002060006101000a81548173ffffffffffffffffffffffffffffffffffffffff021916908373ffffffffffffffffffffffffffffffffffffffff160217905550600560003373ffffffffffffffffffffffffffffffffffffffff1673ffffffffffffffffffffffffffffffffffffffff16815260200190815260200160002060008154809291906104ba90611365565b919050555060018060008282546104d191906113ad565b925050819055506000819050600115158173ffffffffffffffffffffffffffffffffffffffff1663f8582e9133308760000151886020015189604001518a606001518b608001518c60a001516040518963ffffffff1660e01b815260040161054098979695949392919061144f565b6020604051808303816000875af115801561055f573d6000803e3d6000fd5b505050506040513d601f19601f82011682018060405250810190610583919061152f565b1515146105c5576040517f08c379a00000000000000000000000000000000000000000000000000000000081526004016105bc906115ce565b60405180910390fd5b60018173ffffffffffffffffffffffffffffffffffffffff166370a08231336040518263ffffffff1660e01b81526004016106009190611046565b602060405180830381865afa15801561061d573d6000803e3d6000fd5b505050506040513d601f19601f820116820180604052508101906106419190611603565b14610681576040517f08c379a00000000000000000000000000000000000000000000000000000000081526004016106789061167c565b60405180910390fd5b7f8c02b4dd083dd0f3ad38590539d52ced353bb5d3ee31c312b43b471a0b53ab2f82600260009054906101000a900473ffffffffffffffffffffffffffffffffffffffff16338660000151876020015188604001516040516106e89695949392919061169c565b60405180910390a150919050565b6000600260009054906101000a900473ffffffffffffffffffffffffffffffffffffffff16905090565b60046020528060005260406000206000915054906101000a900473ffffffffffffffffffffffffffffffffffffffff1681565b606060038054806020026020016040519081016040528092919081815260200182805480156107d757602002820191906000526020600020905b8160009054906101000a900473ffffffffffffffffffffffffffffffffffffffff1673ffffffffffffffffffffffffffffffffffffffff168152602001906001019080831161078d575b5050505050905090565b6107e9610bbd565b6107f36000610c44565b565b60008060009054906101000a900473ffffffffffffffffffffffffffffffffffffffff16905090565b60606000600560008473ffffffffffffffffffffffffffffffffffffffff1673ffffffffffffffffffffffffffffffffffffffff1681526020019081526020016000205467ffffffffffffffff81111561087b5761087a610d3a565b5b6040519080825280602002602001820160405280156108a95781602001602082028036833780820191505090505b5090506000805b600154811015610a325760046000600383815481106108d2576108d1611712565b5b9060005260206000200160009054906101000a900473ffffffffffffffffffffffffffffffffffffffff1673ffffffffffffffffffffffffffffffffffffffff1673ffffffffffffffffffffffffffffffffffffffff16815260200190815260200160002060009054906101000a900473ffffffffffffffffffffffffffffffffffffffff1673ffffffffffffffffffffffffffffffffffffffff168573ffffffffffffffffffffffffffffffffffffffff1603610a25576003818154811061099e5761099d611712565b5b9060005260206000200160009054906101000a900473ffffffffffffffffffffffffffffffffffffffff168383815181106109dc576109db611712565b5b602002602001019073ffffffffffffffffffffffffffffffffffffffff16908173ffffffffffffffffffffffffffffffffffffffff16815250508180610a2190611365565b9250505b80806001019150506108b0565b508192505050919050565b6000600154905090565b60038181548110610a5757600080fd5b906000526020600020016000915054906101000a900473ffffffffffffffffffffffffffffffffffffffff1681565b610a8e610bbd565b600073ffffffffffffffffffffffffffffffffffffffff168173ffffffffffffffffffffffffffffffffffffffff1603610b005760006040517f1e4fbdf7000000000000000000000000000000000000000000000000000000008152600401610af79190611046565b60405180910390fd5b610b0981610c44565b50565b6000763d602d80600a3d3981f3363d3d373d3d3d363d730000008260601b60e81c176000526e5af43d82803e903d91602b57fd5bf38260781b17602052603760096000f09050600073ffffffffffffffffffffffffffffffffffffffff168173ffffffffffffffffffffffffffffffffffffffff1603610bb8576040517fc2f868f400000000000000000000000000000000000000000000000000000000815260040160405180910390fd5b919050565b610bc5610d08565b73ffffffffffffffffffffffffffffffffffffffff16610be36107f5565b73ffffffffffffffffffffffffffffffffffffffff1614610c4257610c06610d08565b6040517f118cdaa7000000000000000000000000000000000000000000000000000000008152600401610c399190611046565b60405180910390fd5b565b60008060009054906101000a900473ffffffffffffffffffffffffffffffffffffffff169050816000806101000a81548173ffffffffffffffffffffffffffffffffffffffff021916908373ffffffffffffffffffffffffffffffffffffffff1602179055508173ffffffffffffffffffffffffffffffffffffffff168173ffffffffffffffffffffffffffffffffffffffff167f8be0079c531659141344cd1fd0a4f28419497f9722a3daafe3b4186f6b6457e060405160405180910390a35050565b600033905090565b6000604051905090565b600080fd5b600080fd5b600080fd5b6000601f19601f8301169050919050565b7f4e487b7100000000000000000000000000000000000000000000000000000000600052604160045260246000fd5b610d7282610d29565b810181811067ffffffffffffffff82111715610d9157610d90610d3a565b5b80604052505050565b6000610da4610d10565b9050610db08282610d69565b919050565b600080fd5b600080fd5b600080fd5b600067ffffffffffffffff821115610ddf57610dde610d3a565b5b610de882610d29565b9050602081019050919050565b82818337600083830152505050565b6000610e17610e1284610dc4565b610d9a565b905082815260208101848484011115610e3357610e32610dbf565b5b610e3e848285610df5565b509392505050565b600082601f830112610e5b57610e5a610dba565b5b8135610e6b848260208601610e04565b91505092915050565b600060c08284031215610e8a57610e89610d24565b5b610e9460c0610d9a565b9050600082013567ffffffffffffffff811115610eb457610eb3610db5565b5b610ec084828501610e46565b600083015250602082013567ffffffffffffffff811115610ee457610ee3610db5565b5b610ef084828501610e46565b602083015250604082013567ffffffffffffffff811115610f1457610f13610db5565b5b610f2084828501610e46565b604083015250606082013567ffffffffffffffff811115610f4457610f43610db5565b5b610f5084828501610e46565b606083015250608082013567ffffffffffffffff811115610f7457610f73610db5565b5b610f8084828501610e46565b60808301525060a082013567ffffffffffffffff811115610fa457610fa3610db5565b5b610fb084828501610e46565b60a08301525092915050565b600060208284031215610fd257610fd1610d1a565b5b600082013567ffffffffffffffff811115610ff057610fef610d1f565b5b610ffc84828501610e74565b91505092915050565b600073ffffffffffffffffffffffffffffffffffffffff82169050919050565b600061103082611005565b9050919050565b61104081611025565b82525050565b600060208201905061105b6000830184611037565b92915050565b61106a81611025565b811461107557600080fd5b50565b60008135905061108781611061565b92915050565b6000602082840312156110a3576110a2610d1a565b5b60006110b184828501611078565b91505092915050565b600081519050919050565b600082825260208201905092915050565b6000819050602082019050919050565b6110ef81611025565b82525050565b600061110183836110e6565b60208301905092915050565b6000602082019050919050565b6000611125826110ba565b61112f81856110c5565b935061113a836110d6565b8060005b8381101561116b57815161115288826110f5565b975061115d8361110d565b92505060018101905061113e565b5085935050505092915050565b60006020820190508181036000830152611192818461111a565b905092915050565b6000819050919050565b6111ad8161119a565b82525050565b60006020820190506111c860008301846111a4565b92915050565b6111d78161119a565b81146111e257600080fd5b50565b6000813590506111f4816111ce565b92915050565b6000602082840312156112105761120f610d1a565b5b600061121e848285016111e5565b91505092915050565b600082825260208201905092915050565b7f616464726573732830292063616e6e6f7420626520616e206f776e6572000000600082015250565b600061126e601d83611227565b915061127982611238565b602082019050919050565b6000602082019050818103600083015261129d81611261565b9050919050565b7f4661696c656420746f206465706c6f79206e657720696e7374616e6365206f6660008201527f20417373657420636f6e74726163740000000000000000000000000000000000602082015250565b6000611300602f83611227565b915061130b826112a4565b604082019050919050565b6000602082019050818103600083015261132f816112f3565b9050919050565b7f4e487b7100000000000000000000000000000000000000000000000000000000600052601160045260246000fd5b60006113708261119a565b91507fffffffffffffffffffffffffffffffffffffffffffffffffffffffffffffffff82036113a2576113a1611336565b5b600182019050919050565b60006113b88261119a565b91506113c38361119a565b92508282019050808211156113db576113da611336565b5b92915050565b600081519050919050565b60005b8381101561140a5780820151818401526020810190506113ef565b60008484015250505050565b6000611421826113e1565b61142b8185611227565b935061143b8185602086016113ec565b61144481610d29565b840191505092915050565b600061010082019050611465600083018b611037565b611472602083018a611037565b81810360408301526114848189611416565b905081810360608301526114988188611416565b905081810360808301526114ac8187611416565b905081810360a08301526114c08186611416565b905081810360c08301526114d48185611416565b905081810360e08301526114e88184611416565b90509998505050505050505050565b60008115159050919050565b61150c816114f7565b811461151757600080fd5b50565b60008151905061152981611503565b92915050565b60006020828403121561154557611544610d1a565b5b60006115538482850161151a565b91505092915050565b7f466163746f72793a20436f756c64206e6f7420696e697469616c697a65204e6560008201527f77204e465420636f6e7472616374000000000000000000000000000000000000602082015250565b60006115b8602e83611227565b91506115c38261155c565b604082019050919050565b600060208201905081810360008301526115e7816115ab565b9050919050565b6000815190506115fd816111ce565b92915050565b60006020828403121561161957611618610d1a565b5b6000611627848285016115ee565b91505092915050565b7f4e4654206e6f74206d696e746564000000000000000000000000000000000000600082015250565b6000611666600e83611227565b915061167182611630565b602082019050919050565b6000602082019050818103600083015261169581611659565b9050919050565b600060c0820190506116b16000830189611037565b6116be6020830188611037565b6116cb6040830187611037565b81810360608301526116dd8186611416565b905081810360808301526116f18185611416565b905081810360a08301526117058184611416565b9050979650505050505050565b7f4e487b7100000000000000000000000000000000000000000000000000000000600052603260045260246000fdfea2646970667358221220381554b91947d01f313187a4291035776fdfd00ecb28c1ce9bb578b25d0a114564736f6c63430008180033",
  "linkReferences": {},
  "deployedLinkReferences": {}
}