{
  "_format": "hh-sol-artifact-1",
  "contractName": "Asset",
  "sourceName": "contracts/Asset.sol",
  "abi": [
    {
      "inputs": [
        {
          "internalType": "address",
          "name": "sender",
          "type": "address"
        },
        {
          "internalType": "uint256",
          "name": "tokenId",
          "type": "uint256"
        },
        {
          "internalType": "address",
          "name": "owner",
          "type": "address"
        }
      ],
      "name": "ERC721IncorrectOwner",
      "type": "error"
    },
    {
      "inputs": [
        {
          "internalType": "address",
          "name": "operator",
          "type": "address"
        },
        {
          "internalType": "uint256",
          "name": "tokenId",
          "type": "uint256"
        }
      ],
      "name": "ERC721InsufficientApproval",
      "type": "error"
    },
    {
      "inputs": [
        {
          "internalType": "address",
          "name": "approver",
          "type": "address"
        }
      ],
      "name": "ERC721InvalidApprover",
      "type": "error"
    },
    {
      "inputs": [
        {
          "internalType": "address",
          "name": "operator",
          "type": "address"
        }
      ],
      "name": "ERC721InvalidOperator",
      "type": "error"
    },
    {
      "inputs": [
        {
          "internalType": "address",
          "name": "owner",
          "type": "address"
        }
      ],
      "name": "ERC721InvalidOwner",
      "type": "error"
    },
    {
      "inputs": [
        {
          "internalType": "address",
          "name": "receiver",
          "type": "address"
        }
      ],
      "name": "ERC721InvalidReceiver",
      "type": "error"
    },
    {
      "inputs": [
        {
          "internalType": "address",
          "name": "sender",
          "type": "address"
        }
      ],
      "name": "ERC721InvalidSender",
      "type": "error"
    },
    {
      "inputs": [
        {
          "internalType": "uint256",
          "name": "tokenId",
          "type": "uint256"
        }
      ],
      "name": "ERC721NonexistentToken",
      "type": "error"
    },
    {
      "inputs": [],
      "name": "InvalidInitialization",
      "type": "error"
    },
    {
      "inputs": [],
      "name": "NotInitializing",
      "type": "error"
    },
    {
      "anonymous": false,
      "inputs": [
        {
          "indexed": true,
          "internalType": "address",
          "name": "owner",
          "type": "address"
        },
        {
          "indexed": true,
          "internalType": "address",
          "name": "approved",
          "type": "address"
        },
        {
          "indexed": true,
          "internalType": "uint256",
          "name": "tokenId",
          "type": "uint256"
        }
      ],
      "name": "Approval",
      "type": "event"
    },
    {
      "anonymous": false,
      "inputs": [
        {
          "indexed": true,
          "internalType": "address",
          "name": "owner",
          "type": "address"
        },
        {
          "indexed": true,
          "internalType": "address",
          "name": "operator",
          "type": "address"
        },
        {
          "indexed": false,
          "internalType": "bool",
          "name": "approved",
          "type": "bool"
        }
      ],
      "name": "ApprovalForAll",
      "type": "event"
    },
    {
      "anonymous": false,
      "inputs": [
        {
          "indexed": false,
          "internalType": "uint256",
          "name": "_fromTokenId",
          "type": "uint256"
        },
        {
          "indexed": false,
          "internalType": "uint256",
          "name": "_toTokenId",
          "type": "uint256"
        }
      ],
      "name": "BatchMetadataUpdate",
      "type": "event"
    },
    {
      "anonymous": false,
      "inputs": [
        {
          "indexed": false,
          "internalType": "uint64",
          "name": "version",
          "type": "uint64"
        }
      ],
      "name": "Initialized",
      "type": "event"
    },
    {
      "anonymous": false,
      "inputs": [
        {
          "indexed": false,
          "internalType": "uint256",
          "name": "_tokenId",
          "type": "uint256"
        }
      ],
      "name": "MetadataUpdate",
      "type": "event"
    },
    {
      "anonymous": false,
      "inputs": [
        {
          "indexed": false,
          "internalType": "address",
          "name": "owner",
          "type": "address"
        },
        {
          "indexed": false,
          "internalType": "string",
          "name": "name",
          "type": "string"
        },
        {
          "indexed": false,
          "internalType": "string",
          "name": "symbol",
          "type": "string"
        },
        {
          "indexed": false,
          "internalType": "address",
          "name": "factory",
          "type": "address"
        }
      ],
      "name": "NFTminted",
      "type": "event"
    },
    {
      "anonymous": false,
      "inputs": [
        {
          "indexed": true,
          "internalType": "address",
          "name": "from",
          "type": "address"
        },
        {
          "indexed": true,
          "internalType": "address",
          "name": "to",
          "type": "address"
        },
        {
          "indexed": true,
          "internalType": "uint256",
          "name": "tokenId",
          "type": "uint256"
        }
      ],
      "name": "Transfer",
      "type": "event"
    },
    {
      "stateMutability": "payable",
      "type": "fallback"
    },
    {
      "inputs": [
        {
          "internalType": "address",
          "name": "to",
          "type": "address"
        },
        {
          "internalType": "uint256",
          "name": "tokenId",
          "type": "uint256"
        }
      ],
      "name": "approve",
      "outputs": [],
      "stateMutability": "nonpayable",
      "type": "function"
    },
    {
      "inputs": [
        {
          "internalType": "address",
          "name": "caller",
          "type": "address"
        }
      ],
      "name": "balanceOf",
      "outputs": [
        {
          "internalType": "uint256",
          "name": "",
          "type": "uint256"
        }
      ],
      "stateMutability": "view",
      "type": "function"
    },
    {
      "inputs": [
        {
          "internalType": "uint256",
          "name": "tokenId",
          "type": "uint256"
        }
      ],
      "name": "getApproved",
      "outputs": [
        {
          "internalType": "address",
          "name": "",
          "type": "address"
        }
      ],
      "stateMutability": "view",
      "type": "function"
    },
    {
      "inputs": [],
      "name": "getAssetId",
      "outputs": [
        {
          "internalType": "string",
          "name": "",
          "type": "string"
        }
      ],
      "stateMutability": "view",
      "type": "function"
    },
    {
      "inputs": [],
      "name": "getAssetOwner",
      "outputs": [
        {
          "internalType": "address",
          "name": "owner",
          "type": "address"
        }
      ],
      "stateMutability": "view",
      "type": "function"
    },
    {
      "inputs": [],
      "name": "getDid",
      "outputs": [
        {
          "internalType": "string",
          "name": "",
          "type": "string"
        }
      ],
      "stateMutability": "view",
      "type": "function"
    },
    {
      "inputs": [],
      "name": "getLicense",
      "outputs": [
        {
          "internalType": "string",
          "name": "",
          "type": "string"
        }
      ],
      "stateMutability": "view",
      "type": "function"
    },
    {
      "inputs": [
        {
          "internalType": "address",
          "name": "owner",
          "type": "address"
        },
        {
          "internalType": "address",
          "name": "_factory",
          "type": "address"
        },
        {
          "internalType": "string",
          "name": "_name",
          "type": "string"
        },
        {
          "internalType": "string",
          "name": "_symbol",
          "type": "string"
        },
        {
          "internalType": "string",
          "name": "_proofId",
          "type": "string"
        },
        {
          "internalType": "string",
          "name": "_did",
          "type": "string"
        },
        {
          "internalType": "string",
          "name": "_assetId",
          "type": "string"
        },
        {
          "internalType": "string",
          "name": "_license",
          "type": "string"
        }
      ],
      "name": "initialize",
      "outputs": [
        {
          "internalType": "bool",
          "name": "",
          "type": "bool"
        }
      ],
      "stateMutability": "nonpayable",
      "type": "function"
    },
    {
      "inputs": [
        {
          "internalType": "address",
          "name": "owner",
          "type": "address"
        },
        {
          "internalType": "address",
          "name": "operator",
          "type": "address"
        }
      ],
      "name": "isApprovedForAll",
      "outputs": [
        {
          "internalType": "bool",
          "name": "",
          "type": "bool"
        }
      ],
      "stateMutability": "view",
      "type": "function"
    },
    {
      "inputs": [],
      "name": "name",
      "outputs": [
        {
          "internalType": "string",
          "name": "",
          "type": "string"
        }
      ],
      "stateMutability": "view",
      "type": "function"
    },
    {
      "inputs": [
        {
          "internalType": "uint256",
          "name": "tokenId",
          "type": "uint256"
        }
      ],
      "name": "ownerOf",
      "outputs": [
        {
          "internalType": "address",
          "name": "",
          "type": "address"
        }
      ],
      "stateMutability": "view",
      "type": "function"
    },
    {
      "inputs": [
        {
          "internalType": "address",
          "name": "from",
          "type": "address"
        },
        {
          "internalType": "address",
          "name": "to",
          "type": "address"
        },
        {
          "internalType": "uint256",
          "name": "tokenId",
          "type": "uint256"
        }
      ],
      "name": "safeTransferFrom",
      "outputs": [],
      "stateMutability": "nonpayable",
      "type": "function"
    },
    {
      "inputs": [
        {
          "internalType": "address",
          "name": "from",
          "type": "address"
        },
        {
          "internalType": "address",
          "name": "to",
          "type": "address"
        },
        {
          "internalType": "uint256",
          "name": "tokenId",
          "type": "uint256"
        },
        {
          "internalType": "bytes",
          "name": "data",
          "type": "bytes"
        }
      ],
      "name": "safeTransferFrom",
      "outputs": [],
      "stateMutability": "nonpayable",
      "type": "function"
    },
    {
      "inputs": [
        {
          "internalType": "address",
          "name": "operator",
          "type": "address"
        },
        {
          "internalType": "bool",
          "name": "approved",
          "type": "bool"
        }
      ],
      "name": "setApprovalForAll",
      "outputs": [],
      "stateMutability": "nonpayable",
      "type": "function"
    },
    {
      "inputs": [
        {
          "internalType": "bytes4",
          "name": "interfaceId",
          "type": "bytes4"
        }
      ],
      "name": "supportsInterface",
      "outputs": [
        {
          "internalType": "bool",
          "name": "",
          "type": "bool"
        }
      ],
      "stateMutability": "view",
      "type": "function"
    },
    {
      "inputs": [],
      "name": "symbol",
      "outputs": [
        {
          "internalType": "string",
          "name": "",
          "type": "string"
        }
      ],
      "stateMutability": "view",
      "type": "function"
    },
    {
      "inputs": [
        {
          "internalType": "uint256",
          "name": "tokenId",
          "type": "uint256"
        }
      ],
      "name": "tokenURI",
      "outputs": [
        {
          "internalType": "string",
          "name": "",
          "type": "string"
        }
      ],
      "stateMutability": "view",
      "type": "function"
    },
    {
      "inputs": [
        {
          "internalType": "address",
          "name": "from",
          "type": "address"
        },
        {
          "internalType": "address",
          "name": "to",
          "type": "address"
        },
        {
          "internalType": "uint256",
          "name": "tokenId",
          "type": "uint256"
        }
      ],
      "name": "transferFrom",
      "outputs": [],
      "stateMutability": "nonpayable",
      "type": "function"
    },
    {
      "stateMutability": "payable",
      "type": "receive"
    }
  ],
  "bytecode": "0x608060405234801561001057600080fd5b50612ecb806100206000396000f3fe60806040526004361061010d5760003560e01c806395d89b4111610095578063c5e4dd8211610064578063c5e4dd8214610383578063c87b56dd146103ae578063d6e2280c146103eb578063e985e9c514610416578063f8582e911461045357610114565b806395d89b41146102db578063a22cb46514610306578063a5d3559a1461032f578063b88d4fde1461035a57610114565b806323b872dd116100dc57806323b872dd146101e457806342842e0e1461020d5780636352211e1461023657806370403a2b1461027357806370a082311461029e57610114565b806301ffc9a71461011657806306fdde0314610153578063081812fc1461017e578063095ea7b3146101bb57610114565b3661011457005b005b34801561012257600080fd5b5061013d600480360381019061013891906120dd565b610490565b60405161014a9190612125565b60405180910390f35b34801561015f57600080fd5b506101686104a2565b60405161017591906121d0565b60405180910390f35b34801561018a57600080fd5b506101a560048036038101906101a09190612228565b610543565b6040516101b29190612296565b60405180910390f35b3480156101c757600080fd5b506101e260048036038101906101dd91906122dd565b61055f565b005b3480156101f057600080fd5b5061020b6004803603810190610206919061231d565b610575565b005b34801561021957600080fd5b50610234600480360381019061022f919061231d565b610677565b005b34801561024257600080fd5b5061025d60048036038101906102589190612228565b610697565b60405161026a9190612296565b60405180910390f35b34801561027f57600080fd5b506102886106a9565b6040516102959190612296565b60405180910390f35b3480156102aa57600080fd5b506102c560048036038101906102c09190612370565b6106ba565b6040516102d291906123ac565b60405180910390f35b3480156102e757600080fd5b506102f06106cc565b6040516102fd91906121d0565b60405180910390f35b34801561031257600080fd5b5061032d600480360381019061032891906123f3565b61076d565b005b34801561033b57600080fd5b50610344610783565b60405161035191906121d0565b60405180910390f35b34801561036657600080fd5b50610381600480360381019061037c9190612568565b610815565b005b34801561038f57600080fd5b50610398610832565b6040516103a591906121d0565b60405180910390f35b3480156103ba57600080fd5b506103d560048036038101906103d09190612228565b6108c4565b6040516103e291906121d0565b60405180910390f35b3480156103f757600080fd5b506104006108d6565b60405161040d91906121d0565b60405180910390f35b34801561042257600080fd5b5061043d600480360381019061043891906125eb565b610968565b60405161044a9190612125565b60405180910390f35b34801561045f57600080fd5b5061047a600480360381019061047591906126cc565b610a0a565b6040516104879190612125565b60405180910390f35b600061049b82610d70565b9050919050565b606060006104ae610dd1565b90508060000180546104bf90612859565b80601f01602080910402602001604051908101604052809291908181526020018280546104eb90612859565b80156105385780601f1061050d57610100808354040283529160200191610538565b820191906000526020600020905b81548152906001019060200180831161051b57829003601f168201915b505050505091505090565b600061054e82610df9565b5061055882610e81565b9050919050565b610571828261056c610ecc565b610ed4565b5050565b600073ffffffffffffffffffffffffffffffffffffffff168273ffffffffffffffffffffffffffffffffffffffff16036105e75760006040517f64a0ae920000000000000000000000000000000000000000000000000000000081526004016105de9190612296565b60405180910390fd5b60006105fb83836105f6610ecc565b610ee6565b90508373ffffffffffffffffffffffffffffffffffffffff168173ffffffffffffffffffffffffffffffffffffffff1614610671578382826040517f64283d7b0000000000000000000000000000000000000000000000000000000081526004016106689392919061288a565b60405180910390fd5b50505050565b61069283838360405180602001604052806000815250610815565b505050565b60006106a282610df9565b9050919050565b60006106b56001610697565b905090565b60006106c582611113565b9050919050565b606060006106d8610dd1565b90508060010180546106e990612859565b80601f016020809104026020016040519081016040528092919081815260200182805461071590612859565b80156107625780601f1061073757610100808354040283529160200191610762565b820191906000526020600020905b81548152906001019060200180831161074557829003601f168201915b505050505091505090565b61077f610778610ecc565b83836111dc565b5050565b60606003805461079290612859565b80601f01602080910402602001604051908101604052809291908181526020018280546107be90612859565b801561080b5780601f106107e05761010080835404028352916020019161080b565b820191906000526020600020905b8154815290600101906020018083116107ee57829003601f168201915b5050505050905090565b610820848484610575565b61082c8484848461135a565b50505050565b60606001805461084190612859565b80601f016020809104026020016040519081016040528092919081815260200182805461086d90612859565b80156108ba5780601f1061088f576101008083540402835291602001916108ba565b820191906000526020600020905b81548152906001019060200180831161089d57829003601f168201915b5050505050905090565b60606108cf82611511565b9050919050565b6060600280546108e590612859565b80601f016020809104026020016040519081016040528092919081815260200182805461091190612859565b801561095e5780601f106109335761010080835404028352916020019161095e565b820191906000526020600020905b81548152906001019060200180831161094157829003601f168201915b5050505050905090565b600080610973610dd1565b90508060050160008573ffffffffffffffffffffffffffffffffffffffff1673ffffffffffffffffffffffffffffffffffffffff16815260200190815260200160002060008473ffffffffffffffffffffffffffffffffffffffff1673ffffffffffffffffffffffffffffffffffffffff16815260200190815260200160002060009054906101000a900460ff1691505092915050565b600080610a15611635565b905060008160000160089054906101000a900460ff1615905060008260000160009054906101000a900467ffffffffffffffff1690506000808267ffffffffffffffff16148015610a635750825b9050600060018367ffffffffffffffff16148015610a98575060003073ffffffffffffffffffffffffffffffffffffffff163b145b905081158015610aa6575080155b15610add576040517ff92ee8a900000000000000000000000000000000000000000000000000000000815260040160405180910390fd5b60018560000160006101000a81548167ffffffffffffffff021916908367ffffffffffffffff1602179055508315610b2d5760018560000160086101000a81548160ff0219169083151502179055505b600073ffffffffffffffffffffffffffffffffffffffff168e73ffffffffffffffffffffffffffffffffffffffff1603610b9c576040517f08c379a0000000000000000000000000000000000000000000000000000000008152600401610b9390612933565b60405180910390fd5b610ba68c8c61165d565b610bae611673565b8c6000806101000a81548173ffffffffffffffffffffffffffffffffffffffff021916908373ffffffffffffffffffffffffffffffffffffffff1602179055508c73ffffffffffffffffffffffffffffffffffffffff163373ffffffffffffffffffffffffffffffffffffffff1614610c5c576040517f08c379a0000000000000000000000000000000000000000000000000000000008152600401610c539061299f565b60405180910390fd5b610c678e600161167d565b610c7260018b61169b565b8660019081610c819190612b6b565b508860039081610c919190612b6b565b508760029081610ca19190612b6b565b507fd133d105f7b44671ec3a00c607590e7154adaafd2e0e9542b201374f293585198e8d8d60008054906101000a900473ffffffffffffffffffffffffffffffffffffffff16604051610cf79493929190612c3d565b60405180910390a1600195508315610d5f5760008560000160086101000a81548160ff0219169083151502179055507fc7f505b2f371ae2175ee4913f4499e1f2633a7b5936321eed1cdaeb6115181d26001604051610d569190612cdf565b60405180910390a15b505050505098975050505050505050565b6000634906490660e01b7bffffffffffffffffffffffffffffffffffffffffffffffffffffffff1916827bffffffffffffffffffffffffffffffffffffffffffffffffffffffff19161480610dca5750610dc982611706565b5b9050919050565b60007f80bb2b638cc20bc4d0a60d66940f3ab4a00c1d7b313497ca82fb0b4ab0079300905090565b600080610e05836117e8565b9050600073ffffffffffffffffffffffffffffffffffffffff168173ffffffffffffffffffffffffffffffffffffffff1603610e7857826040517f7e273289000000000000000000000000000000000000000000000000000000008152600401610e6f91906123ac565b60405180910390fd5b80915050919050565b600080610e8c610dd1565b905080600401600084815260200190815260200160002060009054906101000a900473ffffffffffffffffffffffffffffffffffffffff16915050919050565b600033905090565b610ee18383836001611833565b505050565b600080610ef1610dd1565b90506000610efe856117e8565b9050600073ffffffffffffffffffffffffffffffffffffffff168473ffffffffffffffffffffffffffffffffffffffff1614610f4057610f3f818587611a07565b5b600073ffffffffffffffffffffffffffffffffffffffff168173ffffffffffffffffffffffffffffffffffffffff1614610fd357610f82600086600080611833565b60018260030160008373ffffffffffffffffffffffffffffffffffffffff1673ffffffffffffffffffffffffffffffffffffffff168152602001908152602001600020600082825403925050819055505b600073ffffffffffffffffffffffffffffffffffffffff168673ffffffffffffffffffffffffffffffffffffffff16146110585760018260030160008873ffffffffffffffffffffffffffffffffffffffff1673ffffffffffffffffffffffffffffffffffffffff168152602001908152602001600020600082825401925050819055505b8582600201600087815260200190815260200160002060006101000a81548173ffffffffffffffffffffffffffffffffffffffff021916908373ffffffffffffffffffffffffffffffffffffffff160217905550848673ffffffffffffffffffffffffffffffffffffffff168273ffffffffffffffffffffffffffffffffffffffff167fddf252ad1be2c89b69c2b068fc378daa952ba7f163c4a11628f55a4df523b3ef60405160405180910390a480925050509392505050565b60008061111e610dd1565b9050600073ffffffffffffffffffffffffffffffffffffffff168373ffffffffffffffffffffffffffffffffffffffff16036111925760006040517f89c62b640000000000000000000000000000000000000000000000000000000081526004016111899190612296565b60405180910390fd5b8060030160008473ffffffffffffffffffffffffffffffffffffffff1673ffffffffffffffffffffffffffffffffffffffff16815260200190815260200160002054915050919050565b60006111e6610dd1565b9050600073ffffffffffffffffffffffffffffffffffffffff168373ffffffffffffffffffffffffffffffffffffffff160361125957826040517f5b08ba180000000000000000000000000000000000000000000000000000000081526004016112509190612296565b60405180910390fd5b818160050160008673ffffffffffffffffffffffffffffffffffffffff1673ffffffffffffffffffffffffffffffffffffffff16815260200190815260200160002060008573ffffffffffffffffffffffffffffffffffffffff1673ffffffffffffffffffffffffffffffffffffffff16815260200190815260200160002060006101000a81548160ff0219169083151502179055508273ffffffffffffffffffffffffffffffffffffffff168473ffffffffffffffffffffffffffffffffffffffff167f17307eab39ab6107e8899845ad3d59bd9653f200f220920489ca2b5937696c318460405161134c9190612125565b60405180910390a350505050565b60008373ffffffffffffffffffffffffffffffffffffffff163b111561150b578273ffffffffffffffffffffffffffffffffffffffff1663150b7a0261139e610ecc565b8685856040518563ffffffff1660e01b81526004016113c09493929190612d4f565b6020604051808303816000875af19250505080156113fc57506040513d601f19601f820116820180604052508101906113f99190612db0565b60015b611480573d806000811461142c576040519150601f19603f3d011682016040523d82523d6000602084013e611431565b606091505b50600081510361147857836040517f64a0ae9200000000000000000000000000000000000000000000000000000000815260040161146f9190612296565b60405180910390fd5b805181602001fd5b63150b7a0260e01b7bffffffffffffffffffffffffffffffffffffffffffffffffffffffff1916817bffffffffffffffffffffffffffffffffffffffffffffffffffffffff19161461150957836040517f64a0ae920000000000000000000000000000000000000000000000000000000081526004016115009190612296565b60405180910390fd5b505b50505050565b6060600061151d611acb565b905061152883610df9565b506000816000016000858152602001908152602001600020805461154b90612859565b80601f016020809104026020016040519081016040528092919081815260200182805461157790612859565b80156115c45780601f10611599576101008083540402835291602001916115c4565b820191906000526020600020905b8154815290600101906020018083116115a757829003601f168201915b5050505050905060006115d5611af3565b905060008151036115eb57819350505050611630565b600082511115611621578082604051602001611608929190612e19565b6040516020818303038152906040529350505050611630565b61162a85611b0a565b93505050505b919050565b60007ff0c57e16840df040f15088dc2f81fe391c3923bec73e23a9662efc9c229c6a00905090565b611665611b73565b61166f8282611bb3565b5050565b61167b611b73565b565b611697828260405180602001604052806000815250611bf0565b5050565b60006116a5611acb565b90508181600001600085815260200190815260200160002090816116c99190612b6b565b507ff8e1a15aba9398e019f0b49df1a4fde98ee17ae345cb5f6b5e2c27f5033e8ce7836040516116f991906123ac565b60405180910390a1505050565b60007f80ac58cd000000000000000000000000000000000000000000000000000000007bffffffffffffffffffffffffffffffffffffffffffffffffffffffff1916827bffffffffffffffffffffffffffffffffffffffffffffffffffffffff191614806117d157507f5b5e139f000000000000000000000000000000000000000000000000000000007bffffffffffffffffffffffffffffffffffffffffffffffffffffffff1916827bffffffffffffffffffffffffffffffffffffffffffffffffffffffff1916145b806117e157506117e082611c0c565b5b9050919050565b6000806117f3610dd1565b905080600201600084815260200190815260200160002060009054906101000a900473ffffffffffffffffffffffffffffffffffffffff16915050919050565b600061183d610dd1565b905081806118785750600073ffffffffffffffffffffffffffffffffffffffff168373ffffffffffffffffffffffffffffffffffffffff1614155b156119ac57600061188885610df9565b9050600073ffffffffffffffffffffffffffffffffffffffff168473ffffffffffffffffffffffffffffffffffffffff16141580156118f357508373ffffffffffffffffffffffffffffffffffffffff168173ffffffffffffffffffffffffffffffffffffffff1614155b801561190657506119048185610968565b155b1561194857836040517fa9fbf51f00000000000000000000000000000000000000000000000000000000815260040161193f9190612296565b60405180910390fd5b82156119aa57848673ffffffffffffffffffffffffffffffffffffffff168273ffffffffffffffffffffffffffffffffffffffff167f8c5be1e5ebec7d5bd14f71427d1e84f3dd0314c0f7b2291e5b200ac8c7c3b92560405160405180910390a45b505b8481600401600086815260200190815260200160002060006101000a81548173ffffffffffffffffffffffffffffffffffffffff021916908373ffffffffffffffffffffffffffffffffffffffff1602179055505050505050565b611a12838383611c76565b611ac657600073ffffffffffffffffffffffffffffffffffffffff168373ffffffffffffffffffffffffffffffffffffffff1603611a8757806040517f7e273289000000000000000000000000000000000000000000000000000000008152600401611a7e91906123ac565b60405180910390fd5b81816040517f177e802f000000000000000000000000000000000000000000000000000000008152600401611abd929190612e3d565b60405180910390fd5b505050565b60007f0542a41881ee128a365a727b282c86fa859579490b9bb45aab8503648c8e7900905090565b606060405180602001604052806000815250905090565b6060611b1582610df9565b506000611b20611af3565b90506000815111611b405760405180602001604052806000815250611b6b565b80611b4a84611d37565b604051602001611b5b929190612e19565b6040516020818303038152906040525b915050919050565b611b7b611e05565b611bb1576040517fd7e6bcf800000000000000000000000000000000000000000000000000000000815260040160405180910390fd5b565b611bbb611b73565b6000611bc5610dd1565b905082816000019081611bd89190612b6b565b5081816001019081611bea9190612b6b565b50505050565b611bfa8383611e25565b611c07600084848461135a565b505050565b60007f01ffc9a7000000000000000000000000000000000000000000000000000000007bffffffffffffffffffffffffffffffffffffffffffffffffffffffff1916827bffffffffffffffffffffffffffffffffffffffffffffffffffffffff1916149050919050565b60008073ffffffffffffffffffffffffffffffffffffffff168373ffffffffffffffffffffffffffffffffffffffff1614158015611d2e57508273ffffffffffffffffffffffffffffffffffffffff168473ffffffffffffffffffffffffffffffffffffffff161480611cef5750611cee8484610968565b5b80611d2d57508273ffffffffffffffffffffffffffffffffffffffff16611d1583610e81565b73ffffffffffffffffffffffffffffffffffffffff16145b5b90509392505050565b606060006001611d4684611f1e565b01905060008167ffffffffffffffff811115611d6557611d6461243d565b5b6040519080825280601f01601f191660200182016040528015611d975781602001600182028036833780820191505090505b509050600082602001820190505b600115611dfa578080600190039150507f3031323334353637383961626364656600000000000000000000000000000000600a86061a8153600a8581611dee57611ded612e66565b5b04945060008503611da5575b819350505050919050565b6000611e0f611635565b60000160089054906101000a900460ff16905090565b600073ffffffffffffffffffffffffffffffffffffffff168273ffffffffffffffffffffffffffffffffffffffff1603611e975760006040517f64a0ae92000000000000000000000000000000000000000000000000000000008152600401611e8e9190612296565b60405180910390fd5b6000611ea583836000610ee6565b9050600073ffffffffffffffffffffffffffffffffffffffff168173ffffffffffffffffffffffffffffffffffffffff1614611f195760006040517f73c6ac6e000000000000000000000000000000000000000000000000000000008152600401611f109190612296565b60405180910390fd5b505050565b600080600090507a184f03e93ff9f4daa797ed6e38ed64bf6a1f0100000000000000008310611f7c577a184f03e93ff9f4daa797ed6e38ed64bf6a1f0100000000000000008381611f7257611f71612e66565b5b0492506040810190505b6d04ee2d6d415b85acef81000000008310611fb9576d04ee2d6d415b85acef81000000008381611faf57611fae612e66565b5b0492506020810190505b662386f26fc100008310611fe857662386f26fc100008381611fde57611fdd612e66565b5b0492506010810190505b6305f5e1008310612011576305f5e100838161200757612006612e66565b5b0492506008810190505b612710831061203657612710838161202c5761202b612e66565b5b0492506004810190505b60648310612059576064838161204f5761204e612e66565b5b0492506002810190505b600a8310612068576001810190505b80915050919050565b6000604051905090565b600080fd5b600080fd5b60007fffffffff0000000000000000000000000000000000000000000000000000000082169050919050565b6120ba81612085565b81146120c557600080fd5b50565b6000813590506120d7816120b1565b92915050565b6000602082840312156120f3576120f261207b565b5b6000612101848285016120c8565b91505092915050565b60008115159050919050565b61211f8161210a565b82525050565b600060208201905061213a6000830184612116565b92915050565b600081519050919050565b600082825260208201905092915050565b60005b8381101561217a57808201518184015260208101905061215f565b60008484015250505050565b6000601f19601f8301169050919050565b60006121a282612140565b6121ac818561214b565b93506121bc81856020860161215c565b6121c581612186565b840191505092915050565b600060208201905081810360008301526121ea8184612197565b905092915050565b6000819050919050565b612205816121f2565b811461221057600080fd5b50565b600081359050612222816121fc565b92915050565b60006020828403121561223e5761223d61207b565b5b600061224c84828501612213565b91505092915050565b600073ffffffffffffffffffffffffffffffffffffffff82169050919050565b600061228082612255565b9050919050565b61229081612275565b82525050565b60006020820190506122ab6000830184612287565b92915050565b6122ba81612275565b81146122c557600080fd5b50565b6000813590506122d7816122b1565b92915050565b600080604083850312156122f4576122f361207b565b5b6000612302858286016122c8565b925050602061231385828601612213565b9150509250929050565b6000806000606084860312156123365761233561207b565b5b6000612344868287016122c8565b9350506020612355868287016122c8565b925050604061236686828701612213565b9150509250925092565b6000602082840312156123865761238561207b565b5b6000612394848285016122c8565b91505092915050565b6123a6816121f2565b82525050565b60006020820190506123c1600083018461239d565b92915050565b6123d08161210a565b81146123db57600080fd5b50565b6000813590506123ed816123c7565b92915050565b6000806040838503121561240a5761240961207b565b5b6000612418858286016122c8565b9250506020612429858286016123de565b9150509250929050565b600080fd5b600080fd5b7f4e487b7100000000000000000000000000000000000000000000000000000000600052604160045260246000fd5b61247582612186565b810181811067ffffffffffffffff821117156124945761249361243d565b5b80604052505050565b60006124a7612071565b90506124b3828261246c565b919050565b600067ffffffffffffffff8211156124d3576124d261243d565b5b6124dc82612186565b9050602081019050919050565b82818337600083830152505050565b600061250b612506846124b8565b61249d565b90508281526020810184848401111561252757612526612438565b5b6125328482856124e9565b509392505050565b600082601f83011261254f5761254e612433565b5b813561255f8482602086016124f8565b91505092915050565b600080600080608085870312156125825761258161207b565b5b6000612590878288016122c8565b94505060206125a1878288016122c8565b93505060406125b287828801612213565b925050606085013567ffffffffffffffff8111156125d3576125d2612080565b5b6125df8782880161253a565b91505092959194509250565b600080604083850312156126025761260161207b565b5b6000612610858286016122c8565b9250506020612621858286016122c8565b9150509250929050565b600067ffffffffffffffff8211156126465761264561243d565b5b61264f82612186565b9050602081019050919050565b600061266f61266a8461262b565b61249d565b90508281526020810184848401111561268b5761268a612438565b5b6126968482856124e9565b509392505050565b600082601f8301126126b3576126b2612433565b5b81356126c384826020860161265c565b91505092915050565b600080600080600080600080610100898b0312156126ed576126ec61207b565b5b60006126fb8b828c016122c8565b985050602061270c8b828c016122c8565b975050604089013567ffffffffffffffff81111561272d5761272c612080565b5b6127398b828c0161269e565b965050606089013567ffffffffffffffff81111561275a57612759612080565b5b6127668b828c0161269e565b955050608089013567ffffffffffffffff81111561278757612786612080565b5b6127938b828c0161269e565b94505060a089013567ffffffffffffffff8111156127b4576127b3612080565b5b6127c08b828c0161269e565b93505060c089013567ffffffffffffffff8111156127e1576127e0612080565b5b6127ed8b828c0161269e565b92505060e089013567ffffffffffffffff81111561280e5761280d612080565b5b61281a8b828c0161269e565b9150509295985092959890939650565b7f4e487b7100000000000000000000000000000000000000000000000000000000600052602260045260246000fd5b6000600282049050600182168061287157607f821691505b6020821081036128845761288361282a565b5b50919050565b600060608201905061289f6000830186612287565b6128ac602083018561239d565b6128b96040830184612287565b949350505050565b7f496e76616c6964204e4654206f776e65723a207a65726f20616464726573732060008201527f6e6f742076616c69642100000000000000000000000000000000000000000000602082015250565b600061291d602a8361214b565b9150612928826128c1565b604082019050919050565b6000602082019050818103600083015261294c81612910565b9050919050565b7f4e6f742074686520466163746f72792061646472657373210000000000000000600082015250565b600061298960188361214b565b915061299482612953565b602082019050919050565b600060208201905081810360008301526129b88161297c565b9050919050565b60008190508160005260206000209050919050565b60006020601f8301049050919050565b600082821b905092915050565b600060088302612a217fffffffffffffffffffffffffffffffffffffffffffffffffffffffffffffffff826129e4565b612a2b86836129e4565b95508019841693508086168417925050509392505050565b6000819050919050565b6000612a68612a63612a5e846121f2565b612a43565b6121f2565b9050919050565b6000819050919050565b612a8283612a4d565b612a96612a8e82612a6f565b8484546129f1565b825550505050565b600090565b612aab612a9e565b612ab6818484612a79565b505050565b5b81811015612ada57612acf600082612aa3565b600181019050612abc565b5050565b601f821115612b1f57612af0816129bf565b612af9846129d4565b81016020851015612b08578190505b612b1c612b14856129d4565b830182612abb565b50505b505050565b600082821c905092915050565b6000612b4260001984600802612b24565b1980831691505092915050565b6000612b5b8383612b31565b9150826002028217905092915050565b612b7482612140565b67ffffffffffffffff811115612b8d57612b8c61243d565b5b612b978254612859565b612ba2828285612ade565b600060209050601f831160018114612bd55760008415612bc3578287015190505b612bcd8582612b4f565b865550612c35565b601f198416612be3866129bf565b60005b82811015612c0b57848901518255600182019150602085019450602081019050612be6565b86831015612c285784890151612c24601f891682612b31565b8355505b6001600288020188555050505b505050505050565b6000608082019050612c526000830187612287565b8181036020830152612c648186612197565b90508181036040830152612c788185612197565b9050612c876060830184612287565b95945050505050565b6000819050919050565b600067ffffffffffffffff82169050919050565b6000612cc9612cc4612cbf84612c90565b612a43565b612c9a565b9050919050565b612cd981612cae565b82525050565b6000602082019050612cf46000830184612cd0565b92915050565b600081519050919050565b600082825260208201905092915050565b6000612d2182612cfa565b612d2b8185612d05565b9350612d3b81856020860161215c565b612d4481612186565b840191505092915050565b6000608082019050612d646000830187612287565b612d716020830186612287565b612d7e604083018561239d565b8181036060830152612d908184612d16565b905095945050505050565b600081519050612daa816120b1565b92915050565b600060208284031215612dc657612dc561207b565b5b6000612dd484828501612d9b565b91505092915050565b600081905092915050565b6000612df382612140565b612dfd8185612ddd565b9350612e0d81856020860161215c565b80840191505092915050565b6000612e258285612de8565b9150612e318284612de8565b91508190509392505050565b6000604082019050612e526000830185612287565b612e5f602083018461239d565b9392505050565b7f4e487b7100000000000000000000000000000000000000000000000000000000600052601260045260246000fdfea2646970667358221220dc939618ce2930f0df966812c3d638e2a8a5c57692877cb775df02adc737da2064736f6c63430008180033",
  "linkReferences": {},
  "deployedLinkReferences": {}
}